:020000040800F2
:10000000880D0020C9010008230800081305000816
:100010001F08000883020008C50D0008000000004A
:10002000000000000000000000000000750C000847
:1000300087020008000000003F0B0008610D000867
:10004000E3010008E3010008E3010008E301000800
:10005000E3010008E3010008E3010008E3010008F0
:10006000E3010008E3010008E3010008E3010008E0
:10007000E3010008E3010008E3010008E3010008D0
:10008000E3010008E3010008E3010008E3010008C0
:10009000E3010008E3010008E3010008E3010008B0
:1000A000E3010008E3010008E3010008E3010008A0
:1000B000E3010008E3010008E3010008E301000890
:1000C000E3010008E3010008E3010008E301000880
:1000D000E3010008E3010008E3010008E301000870
:1000E000D1020008E3010008E301000800F002F873
:1000F00000F05AF80AA090E8000C82448344AAF168
:100100000107DA4501D100F04FF8AFF2090EBAE865
:100110000F0013F0010F18BFFB1A43F0010318473B
:1001200098130000B81300000A444FF0000C10F8B8
:10013000013B13F0070408BF10F8014B1D1108BF65
:1001400010F8015B641E05D010F8016B641E01F805
:10015000016BF9D113F0080F1EBF10F8014BAD1C55
:100160000C1B09D16D1E58BF01F801CBFAD505E073
:1001700014F8016B01F8016B6D1EF9D59142D6D3CD
:10018000704700000023002400250026103A28BFF5
:1001900078C1FBD8520728BF30C148BF0B607047F9
:1001A0001FB51FBD10B510BD00F031F81146FFF7A7
:1001B000F7FF00F057FE00F04FF803B4FFF7F2FF2F
:1001C00003BC00F057F80000094880470948004781
:1001D000FEE7FEE7FEE7FEE7FEE7FEE7FEE7FEE7F7
:1001E000FEE7FEE704480549054A064B7047000054
:1001F000650D0008ED00000888070020880D00202C
:1002000088090020880900207047704770477546AC
:1002100000F02CF8AE4605006946534620F0070072
:10022000854618B020B5FFF7DDFFBDE820404FF050
:1002300000064FF000074FF000084FF0000B21F0D0
:100240000701AC46ACE8C009ACE8C009ACE8C0099D
:10025000ACE8C0098D46704710B50446AFF3008086
:100260002046BDE81040FFF7A8BF000000487047D7
:100270002807002001491820ABBEFEE72600020037
:10028000704700BFFEE7704700B5034603E04FF438
:100290007A7000F005F8181EA3F10103F7D100BD34
:1002A00000EBC001C9004FF0E022516100219161D3
:1002B0000521116100BF4FF0E021096901F480318F
:1002C0000029F8D004214FF0E022116170470000AE
:1002D00010B54FF4804000F013F8012807D18003D7
:1002E00000F008F802480068401C0149086010BD91
:1002F0001400002001490860704700001404014008
:10030000014600200022074B1B6803EA0102054B4F
:1003100014331B680B4013B10AB1012000E0002028
:100320007047000000040140002123498279002A1F
:100330003AD00A46126803689A430B461A600A1DAF
:10034000126803689A430B1D1A60027911440A6807
:1003500003681A430A60184A0832126803689A430D
:10036000154B08331A601A1D126803689A43124B22
:100370000C331A604279102A0ED11A1F12680368D2
:100380001A430D4B08331A601A1D126803681A438A
:10039000094B0C331A600DE00749427911440A6891
:1003A00003681A430A6005E0027911440A68036889
:1003B0009A430A60704700000004014030B50022F3
:1003C0008B071C0F0F2303FA04F20B4B8C1053F80E
:1003D00024309343084C8D1044F8253023468C106C
:1003E00053F824308C07240F00FA04F42343024C02
:1003F0008D1044F8253030BD080001402DE9F04152
:10040000024600250026002000230024002791F842
:1004100003C00CF00F0591F803C00CF0100CBCF1F8
:10042000000F03D091F802C04CEA050591F800C016
:10043000BCF1000F31D0146800202BE04FF0010C0C
:100440000CFA00F3B1F800C00CEA03069E4220D17A
:1004500083004FF00F0C0CFA03F7BC4305FA03FCC2
:100460004CEA040491F803C0BCF1280F06D14FF008
:10047000010C0CFA00FCC2F814C00AE091F803C0A9
:10048000BCF1480F05D14FF0010C0CFA00FCC2F88A
:1004900010C0401C0828D1D31460B1F800C0BCF1D2
:1004A000FF0F34DD546800202EE000F1080C4FF0FF
:1004B000010808FA0CF3B1F800C00CEA03069E42EA
:1004C00021D183004FF00F0C0CFA03F7BC4305FA5F
:1004D00003FC4CEA040491F803C0BCF1280F05D1D9
:1004E00000F1080C08FA0CF8C2F8148091F803C067
:1004F000BCF1480F07D100F1080C4FF0010808FAD1
:100500000CF8C2F81080401C0828CED35460BDE817
:10051000F08100BFFEE770B50246002400250023ED
:100520000020958A138B1B0445EA030626F07F44BE
:1005300004EA01068E4201D1012000E0002070BDD6
:1005400021B1028842F00102028004E002884FF6E5
:10055000FE731A400280704700B585B0012148053E
:1005600000F0EEFA0121082000F00AFBC020ADF8EF
:10057000000003208DF802001C208DF8030069465E
:100580001148FFF73BFF114800F024F80020ADF8B8
:1005900008004BF6FF70ADF80A003020ADF80C00F3
:1005A0004FF48060ADF80E000001ADF8100008486F
:1005B000019001210548FFF7C3FF01A9034800F09E
:1005C0005BF805B000BD0000000C01400054004085
:1005D000801A060010B504460B48844209D1012157
:1005E000480500F0BDFA00214FF4001000F0B8FA01
:1005F00008E00121880500F0B3FA00214FF48000E3
:1006000000F0AEFA10BD00000054004021B1028895
:1006100042F48072028004E002884FF6FF631A40C1
:100620000280704721B1028842F40072028004E027
:1006300002884FF6FF531A40028070470CB50246FD
:10064000002000230193009300920B0F019321F0EF
:100650007F41019B1BB1009B1433009303E0090C05
:10066000009B18330093009B1B680B400BB10120CB
:1006700000E000200CBD00002DE9F04385B00446E9
:100680000D460026B1460427DFF8CC80A6884FF639
:10069000C0700640684600F083FADDF808802F48F5
:1006A000B8FBF0F01FFA80F946EA0906A680208818
:1006B0004FF6FE71084020800026294928688842AC
:1006C0000CD828684000B8FBF0F087B2042F00DA9D
:1006D00004273E4309F10100208427E0E8884BF617
:1006E000FF71884206D1286800EB4000B8FBF0F0AB
:1006F00087B209E0286800EBC00101EB0010B8FBED
:10070000F0F087B247F48047C7F30B0008B947F011
:10071000010747F4004006434FF4967009FB00F0D0
:100720004FF47A7190FBF1F0401C2084A68320885E
:1007300040F00100208026884FF6F5300640A8885A
:100740006989084306432680A889298908432081AE
:1007500005B0BDE8F083000000127A0040420F00AF
:10076000A086010012B141F0010102E04FF6FE73D4
:1007700019400182704701827047000070B504463D
:100780000D4600BF4FF400311C48FFF757FF00280B
:10079000F8D101211948FFF739FF00BF1849174860
:1007A000FFF7B9FE0028F9D0002278211348FFF79F
:1007B000D9FF00BF13491148FFF7ADFE0028F9D05B
:1007C00021460E48FFF7D7FF00BF0E49891C0B4892
:1007D000FFF7A1FE0028F8D029460848FFF7CBFF15
:1007E00000BF0849891C0548FFF795FE0028F8D08E
:1007F00001210248FFF716FF70BD000000540040C1
:10080000010003008200070010B50246012000230A
:1008100002E050435C1CE3B28B42FADB10BD00BF28
:10082000FEE7704770B5002100230F22C47804B39F
:10083000154C246804F4E064C4F5E064210AC1F1B5
:100840000403CA40447804FA03F184781440214335
:1008500009010E4C0678A155047804F01F05012407
:10086000AC4005786D11AD0005F1E025C5F80041FB
:1008700009E0047804F01F050124AC40044D06781B
:10088000761145F8264070BD0CED00E000E400E074
:1008900080E100E002490143024A11607047000014
:1008A0000000FA050CED00E010B5002000F001F8A2
:1008B00010BD70B50646002415E004F1B001C8B2C1
:1008C00000F082FA002000F07FFA102000F07CFA9D
:1008D000002504E0304600F07EFA681CC5B2802D89
:1008E000F8DB601CC4B2082CE7DB70BD10B56420D7
:1008F000FFF7CAFCAE2000F067FA202000F064FA8F
:10090000102000F061FAB02000F05EFAC82000F07C
:100910005BFA002000F058FA102000F055FA402051
:1009200000F052FA812000F04FFAFF2000F04CFA5C
:10093000A12000F049FAA62000F046FAA82000F015
:1009400043FA3F2000F040FAA42000F03DFAD32003
:1009500000F03AFA002000F037FAD52000F034FA1F
:10096000F02000F031FAD92000F02EFA222000F019
:100970002BFADA2000F028FA122000F025FADB200A
:1009800000F022FA202000F01FFA8D2000F01CFA5F
:10099000142000F019FAAF2000F016FA10BD70B55F
:1009A00004460D4605F1B001C8B200F00DFA102161
:1009B00041EA141000F008FA04F00F0141F00100C0
:1009C00000F002FA70BD00002DE9F04106460F4626
:1009D00015464FF000080024A5F1200000F0FF08A4
:1009E00039463046FFF7DBFF00BF09E008EB48015E
:1009F000054A02EB4101085D00F0EDF9601CC4B24C
:100A0000062CF3DBBDE8F081900E00082DE9F041E3
:100A100080460E46174600250024A7F12000C5B2E7
:100A200031464046FFF7BBFF00BF07E004EB05116E
:100A30000D4A505C00F0CFF9601CC4B2082CF5DB05
:100A4000701CC1B24046FFF7AAFF002408E004EB87
:100A500005110831044A505C00F0BDF9601CC4B2B5
:100A6000082CF4DBBDE8F081380100202DE9F05FAF
:100A70000746894615469846DDF828A0BAF1010FC9
:100A800003D0BAF1020F57D12AE0002D06DB2B224A
:100A900049463846FFF798FF2E4605E02D22494685
:100AA0003846FFF791FF6E42444616E0611E0A2069
:100AB000FFF7AAFEB6FBF0F00A21B0FBF1F201FB52
:100AC000120000F1300BB91DC8B25A464946FFF773
:100AD0007BFFB81DC7B2601EC4B2002CE6DC2BE061
:100AE000002D06DB2B2249463846FFF78FFF2E46A6
:100AF00005E02D2249463846FFF788FF6E424446FE
:100B000017E0611E0A20FFF77FFEB6FBF0F00A2116
:100B1000B0FBF1F201FB120000F1300BB91DC8B2BD
:100B20005A464946FFF772FF07F10800C7B2601E38
:100B3000C4B2002CE5DC00BF00BFBDE8F09F7047E9
:100B400029B1064AD2690243044BDA6104E0034A40
:100B5000D2698243014BDA61704700000010024005
:100B600029B1064A12690243044B1A6104E0034AA0
:100B700012698243014B1A61704700000010024065
:100B800029B1064A92690243044B9A6104E0034A80
:100B900092698243014B9A61704700000010024045
:100BA00030B500210022002400232D4D6D6805F092
:100BB0000C0121B1042905D0082923D105E0294DD4
:100BC000056022E0274D05601FE0254D6D6805F4A6
:100BD0007012234D6D6805F48034022505EB9242B6
:100BE0001CB9214D554305600BE01D4D6D6805F4A2
:100BF00000351DB11C4D5543056002E0194D5543AC
:100C0000056002E0174D056000BF00BF144D6D6820
:100C100005F0F0010909154D6B5C0568DD40456084
:100C20000F4D6D6805F4E061090A104D6B5C456875
:100C3000DD4085600A4D6D6805F46051C90A0B4DB1
:100C40006B5C4568DD40C560054D6D6805F440414D
:100C5000890B074D6B5CC568B5FBF3F5056130BDCD
:100C60000010024000127A0000093D000000002040
:100C700010000020704710B500F002F810BD000011
:100C80000CB50020019000903348006840F480309B
:100C90003149086000BF3048006800F4003000901F
:100CA0000198401C0190009818B90198B0F5A06F08
:100CB000F1D12948006800F4003010B10120009003
:100CC00001E0002000900098012843D123480068EB
:100CD00040F01000214908600846006820F0030039
:100CE00008600846006840F0020008601A48406842
:100CF000194948600846406848600846406840F422
:100D0000806048600846406820F47C1048600846CF
:100D1000406840F4E81048600846006840F0807081
:100D2000086000BF0C48006800F000700028F9D08F
:100D30000948406820F003000749486008464068B9
:100D400040F00200486000BF0348406800F00C001B
:100D50000828F9D10CBD000000100240002002401C
:100D60007047000010B51348006840F001001149B9
:100D7000086008464068104908400E494860084627
:100D800000680E4908400B4908600846006820F4D6
:100D9000802008600846406820F4FE0048604FF458
:100DA0001F008860FFF767FF4FF00060044908608C
:100DB00010BD0000001002400000FFF8FFFFF6FE2B
:100DC00008ED00E000BFFEE710B504462146002014
:100DD000FFF7D4FC10BD10B5044621464020FFF7B4
:100DE000CDFC10BD1FB501210820FFF7C9FE012170
:100DF0000846FFF7C5FE48208DF80F0003208DF848
:100E00000E004FF48040ADF80C0003A91448FFF722
:100E1000F5FA0E210120FFF7D1FA4FF4804001903E
:100E200001208DF80A0000208DF808000C208DF8B4
:100E3000090001A8FFF778FA4FF4A060FFF72AFD38
:100E400001208DF8030028208DF8000001208DF886
:100E500001008DF802006846FFF7E4FC1FBD0000AA
:100E6000000C014008B5FFF777FBFFF73FFDFFF7E8
:100E70001BFDFFF7B7FF08E00120042300900348A3
:100E8000012102680846FFF7F1FDF5E71400002094
:100E90000000000000000000002F0000000007001C
:100EA000070000147F147F1400242A7F2A12006296
:100EB0006408132300364955225000000503000042
:100EC00000001C224100000041221C000014083ECA
:100ED00008140008083E0808000000A06000000890
:100EE00008080808000060600000002010080402E4
:100EF000003E5149453E0000427F400000426151A2
:100F00004946002141454B31001814127F1000273B
:100F100045454539003C4A494930000171090503FE
:100F200000364949493600064949291E000036362F
:100F30000000000056360000000814224100001492
:100F4000141414140000412214080002015109066F
:100F500000324959513E007C1211127C007F4949F0
:100F60004936003E41414122007F4141221C007F21
:100F700049494941007F09090901003E4149497A2F
:100F8000007F0808087F0000417F410000204041A9
:100F90003F01007F08142241007F40404040007F15
:100FA000020C027F007F0408107F003E4141413E59
:100FB000007F09090906003E4151215E007F0919A1
:100FC00029460046494949310001017F0101003F9E
:100FD0004040403F001F2040201F003F4038403F1E
:100FE0000063140814630007087008070061514982
:100FF000454300007F41410000552A552A55000015
:1010000041417F0000040201020400404040404092
:10101000000001020400002054545478007F48442A
:10102000443800384444442000384444487F003861
:101030005454541800087E0901020018A4A4A47C8A
:10104000007F080404780000447D40000040808454
:101050007D00007F102844000000417F4000007C9C
:1010600004180478007C08040478003844444438A8
:1010700000FC242424180018242418FC007C0804F4
:10108000040800485454542000043F444020003CCD
:101090004040207C001C2040201C003C4030403C54
:1010A000004428102844001CA0A0A07C00446454E4
:1010B0004C44141414141414000000000000000028
:1010C000C02010101020DC323ADC20A0A0C00E306E
:1010D0007E00408000000000608080000000000072
:1010E00000000000000000000000000000000040C0
:1010F000A09088D4E47072BC7838383E7CF8F8F858
:10110000F0F0F0E0C0C0402000000000FEFAFEFE5B
:10111000FEFEFEFEFEFCFEFE1E02000000000000C1
:1011200000000000000000000000000000000000BF
:1011300000000000000000000000804E312121214D
:1011400027F890D4F2E8474141D1231D81402098EF
:1011500004833C90F13ECE7763C3C3273FFEFEFC81
:10116000F0C00000000000000000000000000000CF
:10117000000E07F1FCFEFFFFFCF89898E4E7FFDCA7
:10118000FCCFCFFFBFFFEF1EF81000403F8F437131
:1011900049498901030FF300008800AA00000000FC
:1011A000000000000000000000000000000000003F
:1011B0000000000000000000C0C0E3D448880A0519
:1011C0003EC145D1E1FFF8F0F0F877D1309000AAA8
:1011D000008800218E701FFEFEFFFF3F3F3F7F9F74
:1011E000FF3F000080808080808080404040404001
:1011F00040C000030F3F7F7FFFBF3F1F0F0F0F8FC8
:101200008FCFE3F7791F070000008060808704011B
:1012100000848340308C03A8008800AA00000000EE
:1012200000000000000000000000000000000000BE
:101230000000000000000000E2D5F7FB6F7A777C29
:101240007AFF727577777765E3EAC1CA008800AAEA
:10125000008800A00FB04082112B4A4A720A130185
:101260000000000001061EFEFEFEFEFF7F7F7F3FA6
:101270003FFF00000000010103031B23232323235E
:1012800025150C8080402070284681CA40282139CD
:10129000458282824478404A408800CA200000008B
:1012A000000000000000000000000000000000003E
:1012B00000000000000000002F16FD6DFDFAEA623C
:1012C000636AFDFA66629A9D65651A2D0088002A98
:1012D000008800220088002A018A0224048808105D
:1012E000101020A0A0604020212325242424444461
:1012F00042C1A0A06020203010101018181814143B
:1013000012222140404080808080000304043CC4BD
:1013100082838347F80808081827C02902000000C4
:1013200000000000000000000000000000000000BD
:10133000000000000000000008080F376F7F7F5F8B
:1013400040577B7D7E7E7F7F3E0E080A000808089E
:101350000808080A080808080808080A080C0C0AFF
:101360000A090D0810102020204040404040402035
:10137000201E21404040404040404040402020202E
:1013800010080C080808080808080909090A0A0DC5
:1013900008080808090E0808080808090A000000DB
:1013A000000000000000000000000000000000003D
:1013B000000000000000000000000000000000002D
:1013C000000000000000000000000000000000001D
:1013D000000000000000000000000000000000000D
:1013E00000000000000000000000000000000000FD
:1013F00000000000000000000000000000000000ED
:1014000000000000000000000000000000000000DC
:1014100000000000000000000000000000000000CC
:1014200000000000000000000000000000000000BC
:1014300000000000000000000000000000000000AC
:10144000000000000000000000000000000000009C
:10145000000000000000000000000000000000008C
:10146000000000000000000000000000000000007C
:10147000000000000000000000000000000000006C
:10148000000000000000000000000000000000005C
:10149000000000000000000000000000000000004C
:1014A000000000000000000000000000000000003C
:1014B0000000000000000000D81400080000002018
:1014C000280700002801000820190008280700202C
:1014D0006006000084010008412D0102030404405D
:1014E000090607080902040608158060F807300B92
:1014F000FC04C434858684F4848417FF40300F01D3
:10150000FF9D024C807F211A02041B04FC44192118
:1015100021141F080425FF040807380E2010E824B2
:10152000272424E424342C20E02F1B1F09012E7FC4
:101530000909498940180C1010D0FF901020A4BF51
:10154000A4E40412201B040340100B03804F2A0A5A
:101550000F0A2A4F80151060028C200A2494CCA513
:1015600096C48C142408101F04047E01201008FC6B
:101570004224081522404060499F40092424252622
:101580002424243C1EFF403C03FF211C7F0989AA20
:101590001780FC96E584FC1F08C8494AC808F22B4E
:1015A000807FD91946210D1F3F404078600113729A
:1015B000F84333301C100C0603912C40C078031103
:1015C0002C043F0403212D7088FC0829261820FFD5
:1015D000211E14F008F033E0184D211C031E1133B6
:1015E0008870000C101E2123241927211010160EBC
:1015F00045E018040225071820402C020418A81101
:101600002D4020180707174080F08040403F02021D
:10161000010F01022842F01D0101011F04912B80DE
:10162000B066B1191D2901913A30CE492C146018C9
:10163000043C6018061D1EE010080810721F0F10F1
:101640002020100FF05310F83620203F20203C704F
:101650000808C21E3028242221441E3008888848E9
:10166000082E1820202011CC3BC02032270704244C
:10167000243F241AF8202308084B19212036E010B3
:101680008888184B0F11101E380808C838202152BE
:101690003F1A702E29608F1C222121221C90111DBF
:1016A00031222211901961CAC0C26A80C659081C31
:1016B00040201050170102040810204A4001114A2E
:1016C00004012119152A403219251B0402F21B704E
:1016D00048D13AF0501A360F1EC030C828E870289A
:1016E000080718272423140B6F2A387E280D203C66
:1016F00023020227382008F888889F4B203FF01BE0
:10170000C0303F1B083830191019781B08F80F1922
:101710004039201B100F103E8888E8081010AC23B9
:10172000201810112A035E2940223829402C221E3D
:10173000024019A41809F808203F21010121252A97
:101740000852298129424149112EC08080807F0E94
:101750002FF888C0281808501C0126382F29402946
:101760002F29801B20301012F81AF81413203F196B
:101770000229204B30C0601A2074123F4BE010B099
:101780006B0F10B029D01AF0301980220179203F58
:1017900018242438504FC04C888870C0140C302056
:1017A0004B7088C11738202121221C3A189F4A18F3
:1017B0008239A049D0112A1F90121F240878881B53
:1017C000C838151C07380E60191A1AF820111403AE
:1017D0003C0714073C034814081868808068180800
:1017E00020302C03032C30200838C82F5950298F63
:1017F00029102F203826212020681145FE020202E0
:10180000257F4040401A0CE0611C0106380B191D71
:1018100042FE191D527F1A04120211045A80011946
:1018200030D91D391621180819242222223F20AB55
:10183000390F115F3F112020110E21311A0E104B6C
:101840002011104B88F8102A10B359401A1F3F2B53
:1018500022130F16F0888888181A20D029D1497AC7
:1018600021176B94949493603960190F4C203F2199
:10187000F354809898793059121AC02719D1193029
:1018800039311F203F24022D30212A081289306966
:10189000D7294B2903190BC96079A019BF2B201F29
:1018A000DD390F9C80FFA1E0191229D03BA0FF0C6D
:1018B0003950194112208A01C01B3324012A190F03
:1018C0003AE0413952290F392349603C103F202C1E
:1018D00029053F010E3008060170291038080F3025
:1018E0000C030C300F2C49A14E312E0E31200C2947
:1018F000621D818E70183059D1215721302C222140
:101900003055807C0202443F404072FF39083C025F
:10191000027C8F5440403F8008060101020204040B
:04000005080001C925
:00000001FF
